:040000008A11112828
:10000800FE00030EF4000408F5000A08F600831247
:1000180003137F08F7008A11742E8A1113288A1196
:1000280088278A11E8008A1189278A11E9008A112C
:100038008A278A11EA008A118B278A11EB00831319
:100048005330840068308A1180278A117830840000
:100058007E308A11802783018A114B2C7D08031971
:100068005028831203135A0861047D057D0603197D
:10007800502861080319621C47287D08A000200841
:10008800E1045B144C287D08A0002008DA04DB1486
:100098007D09A0002008FD057D0803195E2883124C
:1000A80003135A087D057D06031D5E287D09A000FF
:1000B8002008FD05831203136608031971286508D3
:1000C80066056606031971286608A0002008E5047D
:1000D8005B156609A0002008E60566080319812853
:1000E800650866056606031981286609A0002008C8
:1000F800E6056609A0002008E605600803199228AD
:100108005F0860056006031992286008A0002008AF
:10011800DF045B156009A0002008E00560080319EA
:10012800A2285F0860056006031DA2286009A000D8
:100138002008DF056009A0002008E0055D1CA8284C
:10014800FE30A0002008DD055B1CC928FE30A00099
:100158002008DB05F0306B05A0006A08F039F03A9A
:100168002005A10004300310A10CFF3E031DB72891
:100178002108A2002208EA045914EC30A000200843
:10018800DE050330A0002008DE04DB1CEB28FD3070
:10019800A0002008DB05F0306A05A000F03020063A
:1001A800A1000030A2000430FF00220DA20CA10C17
:1001B800FF0BD9282108A3002308EA04D914E43046
:1001C800A0002008DE050330A0002008DE045B1D27
:1001D800FA28FB30A0002008DB055915DA30A0000A
:1001E8002008DE050530A0002008DE04DB1FD22B26
:1001F8007F30A0002008DB050130A0002008D707C9
:100208000F305705A0000E302002031C592BF03088
:10021800A0002008D705FF30F806FF30F906803027
:100228007805A00080302006A100790880392105D2
:10023800A20040307805A30040302306A4007908C6
:1002480040392405A50020307805A6002030260670
:10025800A700790820392705A80010307805A900DB
:1002680010302906AA00790810392A05AB00083091
:100278007805AC0008302C06AD00790808392D0542
:10028800AE0004307805AF0004302F06B0007908BE
:1002980004393005B10002307805B2000230320668
:1002A800B300790802393305B4007908B600780834
:1002B800B5003608B500B60101303505B700780835
:1002C8000139013A3705340431042E042B0428047B
:1002D80025042204B8003808FD0480307805A00001
:1002E80080302006A100790880392105A20040301D
:1002F8007805A30040302306A40079084039240576
:10030800A50020307805A60020302606A700790829
:1003180020392705A80010307805A90010302906D3
:10032800AA00790810392A05AB0008307805AC0016
:1003380008302C06AD00790808392D05AE000430C8
:100348007805AF0004302F06B0007908043930056D
:10035800B10002307805B20002303206B3007908E5
:1003680002393305B4007908B6007808B5003608B4
:10037800B500B60101303505B70078080139013AF2
:100388003705340431042E042B04280425042204E0
:10039800B8003808FD04FF307805A0000030790562
:1003A800A1002008A100A0012008F8002108F900F8
:1003B800FF30FA06FF30FB0680307A05A000803057
:1003C8002006A1007B0880392105A20040307A056B
:1003D800A30040302306A4007B0840392405A5006B
:1003E80020307A05A60020302606A7007B08203991
:1003F8002705A80010307A05A90010302906AA00A0
:100408007B0810392A05AB0008307A05AC000830A3
:100418002C06AD007B0808392D05AE0004307A059E
:10042800AF0004302F06B0007B0804393005B10056
:1004380002307A05B20002303206B3007B08023976
:100448003305B4007B08B6007A08B5003608B50055
:10045800B60101303505B7007A080139013A370588
:10046800340431042E042B04280425042204B80083
:100478003808E604FF30FA06FF30FB0680307A05BC
:10048800A00080302006A1007B0880392105A20049
:1004980040307A05A30040302306A4007B08403989
:1004A8002405A50020307A05A60020302606A700DE
:1004B8007B0820392705A80010307A05A9001030DC
:1004C8002906AA007B0810392A05AB0008307A05EE
:1004D800AC0008302C06AD007B0808392D05AE00AD
:1004E80004307A05AF0004302F06B0007B080439C9
:1004F8003005B10002307A05B20002303206B3008E
:100508007B0802393305B4007B08B6007A08B500C9
:100518003608B500B60101303505B7007A0801394B
:10052800013A3705340431042E042B042804250429
:100538002204B8003808E604FF307A05A00000302D
:100548007B05A1002008A100A0012008FA002108CD
:10055800FB000F30A0002008FC0608307C05A00036
:1005680008302006A1007C08A20004300310A20C69
:10057800FF3E031DBA2A220808392105A3000430CA
:100588007C05A40004302406A5007C08A6000430DD
:100598000310A60CFF3E031DCC2A260804392505A6
:1005A800A70002307C05A80002302806A9007C08B4
:1005B800AA0004300310AA0CFF3E031DDE2A2A08F5
:1005C80002392905AB007C08AC0004300310AC0CE0
:1005D800FF3E031DEA2A01302C05AD007C080139D5
:1005E800013A2D052B0427042304AE002E08E0044D
:1005F8000F30A0002008FC0608307C05A000083059
:100608002006A1007C08A20004300310A20CFF3EC3
:10061800031D092B220808392105A30004307C0595
:10062800A40004302406A5007C08A60004300310AA
:10063800A60CFF3E031D1B2B260804392505A70021
:1006480002307C05A80002302806A9007C08AA0010
:1006580004300310AA0CFF3E031D2D2B2A08023973
:100668002905AB007C08AC0004300310AC0CFF3E3D
:10067800031D392B01302C05AD007C080139013AE6
:100688002D052B0427042304AE002E08E0047C0863
:100698000F39A00003300310A00DFF3E031D4F2BA0
:1006A8000310200DA1002108FC00C130A000200883
:1006B8009F0557080F39A00001300310A00DFF3E19
:1006C800031D612B0310200DA10021089F040000C9
:1006D8000000000000000000000000000000000012
:1006E8000000000000000000000000000000000002
:1006F80000000000000000000000000000000000F2
:1007080000000000000000000000000000000000E1
:1007180000000000000000000000000000000000D1
:1007280000000000000000000000000000000000C1
:1007380000000000000000000000000000000000B1
:1007480000000000000000000000000000000000A1
:100758000000000000000000000000000000000091
:100768000000000000000000000000000000000081
:100778000000000000000000000000000000000071
:100788000000000000000000000000000000000061
:10079800000000000000831203139F14581CDC2B78
:1007A800FE30A0002008D8057F30A0002008E30014
:1007B800D81CFC2BFD30A0002008D805591CE62BBE
:1007C800FE30E92BD91CEE2BFD30A0002008D905FE
:1007D8005E16F52B591DF52BFB30A0002008D90516
:1007E800DE165908031DFC2BFE30A0002008DE058C
:1007F800581D442CFB30A0002008D80561080319B7
:10080800222C5A08031D222C6B080F390319222C9D
:100818000F306B05A000F0306B05A1006A08F039B5
:10082800F03A2105A20004300310A20CFF3E031D7C
:10083800182C22082005A30023083F2C5A08031966
:10084800442C6B080F390319442C0F306B05A0009A
:10085800F0306A05A100F0302106A2000030A300A4
:100868000430FF00230DA30CA20CFF0B362C22082A
:100878002005A4002408EA060830A0002008DE06A7
:10088800D81D0800F730A0002008D80508006030FF
:10089800831603138F00D730810083120317850155
:1008A8000F30831603138500BF308600FF308700A2
:1008B8000F3088000F3089000F3083160317880027
:1008C8003F30890083120313D301D401D501D60127
:1008D8005308850054088600550887005608880084
:1008E8008901E0308B004030831603138C00803080
:1008F8009F004130831203139F00DC016C080F39FD
:10090800B90003300310B90DFF3E031D862C0310F8
:10091800390DBA003A08EC0008080F390F3AB90047
:100928003908EC0408306C05B90008303906BA00FB
:100938006C08BB0004300310BB0CFF3E031D9F2C4A
:100948003B0808393A05BC0004306C05BD0004308A
:100958003D06BE006C08BF0004300310BF0CFF3E0C
:10096800031DB12C3F0804393E05C00002306C0558
:10097800C10002304106C2006C08C30004300310F5
:10098800C30CFF3E031DC32C430802394205C400B3
:100998006C08C50004300310C50CFF3E031DCF2CA6
:1009A80001304505C6006C080139013A4605440482
:1009B80040043C04C7004708D8046D080F39B90043
:1009C80003300310B90DFF3E031DE52C0310390D4C
:1009D800BA003A08ED0080300605B90080303906C3
:1009E800BA000030BB000730FF003B0DBB0CBA0C4F
:1009F800FF0BF92C3A08BC003C08ED046D08B9005F
:100A080004300310B90CFF3E031D052D01303905D4
:100A1800BA006D080139013A3A05BB003B08DD040C
:100A28008A1132208A110F3083120313B900390852
:100A3800D6055C080139B90003300310B90DFF3E33
:100A4800031D212D0310390D103ABA003A08D604B7
:100A58005E081039B90001300310B90DFF3E031DBF
:100A6800302D5E080239BA0004300310BA0DFF3E7B
:100A7800031D392D5E08BB0002300310BB0CFF3E7E
:100A8800031D412D3B083A0520393904BC003C08B8
:100A9800D6045E082039B90001300310B90DFF3EB5
:100AA800031D512D5E080439BA0004300310BA0D35
:100AB800FF3E031D5A2D5E08BB0003103B0C3A0590
:100AC80040393904BC003C08D6045E080839B9002E
:100AD80003300310B90DFF3E031D6D2D0310390DB2
:100AE800BA003A08D60456088800BF30B900390859
:100AF800D40540305E05B9005E080139BA000530FA
:100B08000310BA0DFF3E031D842D03103A0D39055D
:100B1800BB003B08D404540886000F30B9003908DC
:100B2800D3056A08B90003300310B90CFF3E031D52
:100B3800982D01303905BA000130BB006808BC00A7
:100B480006300310BC0CFF3E031DA52D3C080339DD
:100B5800013EB02D0310BB0DFF3E031DAE2D3B081B
:100B68006905BD006808BE0006300310BE0CFF3ED4
:100B7800031DB92D3E080339013EC42D0310BD0CD9
:100B8800FF3E031DC22D3D083A05BF000730031084
:100B9800BF0DFF3E031DCB2D6A08C00002300310B5
:100BA800C00CFF3E031DD32D01304005C1000130AC
:100BB800C2006808C30004300310C30CFF3E031DC5
:100BC800E02D43080339013EEB2D0310C20DFF3E13
:100BD800031DE92D42086905C4006808C5000430F2
:100BE8000310C50CFF3E031DF42D45080339013ED3
:100BF800FF2D0310C40CFF3E031DFD2D44084105C5
:100C0800C60006300310C60DFF3E031D062E6A08F7
:100C1800C70001300310C70CFF3E031D0E2E013024
:100C28004705C8000130C9006808CA00023003102F
:100C3800CA0CFF3E031D1B2E4A080339013E262E0F
:100C48000310C90DFF3E031D242E49086905CB007A
:100C58006808CC0002300310CC0CFF3E031D2F2E79
:100C68004C080339013E3A2E0310CB0CFF3E031DFE
:100C7800382E4B084805CD0005300310CD0DFF3E3A
:100C8800031D412E01306A05CE000130CF006808EF
:100C98000339013E512E0310CF0DFF3E031D4F2E89
:100CA8004F086905D00068080339013E5D2E03101E
:100CB800D00CFF3E031D5B2E50084E05D1000330BB
:100CC8000310D10DFF3E031D642E0310510D4D047A
:100CD80046043F04D2005208D30453088500822CEE
:100CE8000B1DCC2EFB30F00070088B050130F00096
:100CF8007008E707671C902E8030F0007008DE0649
:100D080063080319902E0130E3026308031D902E37
:100D18000130831203178500033003136705F000C1
:100D28007003031D9B2E0230F0007008E90607309F
:100D38006705F0007003031DCC2E4030F0007008EA
:100D4800DE060430F0007008E9061030F000700884
:100D5800E907F0306905F000703070020318C02E02
:100D6800F730F0007008E9056908F0000310700C0E
:100D78000839F1007108E904F0306905F0008030A5
:100D88007006031DCB2E0F30F0007008E9059F1484
:100D98000C1F752FBF30F00070088C050F30F00065
:100DA8007008D7055530831603131E02031CE52E61
:100DB8000330831203131E05F0000330700203187A
:100DC8005716EF30831603131E02031CF32E03304D
:100DD800831203131E05F00070030319FC2E043060
:100DE800831603131E020318FC2E831203131E0816
:100DF8001030831603131E020318052F83120313E2
:100E08001E080F3083125705F00004307002031CCF
:100E1800742F0F305705F00006307002031C742F32
:100E280057080F39FA3EF000F00A0130F10000309F
:100E3800F200212F0310F10DF20DF00B1E2FF10916
:100E4800F2097108F8057208F90557080F39FA3ED2
:100E5800F000F00A5708F10004300310F10CFF3ECF
:100E6800031D312F71080139F200F3013E2F0310E1
:100E7800F20DF30DF00B3B2F7208F8047308F90418
:100E880057080F39FA3EF000F00A0130F10000303F
:100E9800F200512F0310F10DF20DF00B4E2FF10956
:100EA800F2097108FA057208FB0557080F39FA3E6E
:100EB800F000F00A5708F10005300310F10CFF3E6E
:100EC800031D612F71080139F200F3016E2F031021
:100ED800F20DF30DF00B6B2F7208FA047308FB0484
:100EE800DB177708FF0076088A0075088400740EFF
:100EF8008300FE0E7E0E090064008001840A040649
:100F0800031900340406812F03341334C0340F341A
:04400E00C4EFFFFFFD
:00000001FF
